:100000000C942A000C945D000C945D000C945D002F
:100010000C945D000C945D000C945D000C945D00EC
:100020000C945D000C945D000C945D000C945D00DC
:100030000C945D000C945D000C945D000C945D00CC
:100040000C945D000C945D000C945D000C945D00BC
:100050000C945D0011241FBECFE5D8E0DEBFCDBFFC
:0C0060000E9436000C944C00F894FFCF76
:10006C0082EF81BB1BB888E18AB986E880BD83E347
:10007C0089B98FEF84BB80E487BB8CE48DB91FB842
:0C008C00779BFECF8FB10E945700F9CF88
:10009800EC010E9462000E946100CE010E94630090
:0600A800CE010E945F0082
:0C00AE008CB95E9BFECF80E48BB90895F6
:0400BA000C940000A2
:0400BE000E94340068
:0200C20008959F
:0200C40008959D
:0200C60008959B
:00000001FF
